{
  "contractName": "HelloWorld",
  "abi": [
    {
      "constant": true,
      "inputs": [],
      "name": "owner",
      "outputs": [
        {
          "name": "",
          "type": "address"
        }
      ],
      "payable": false,
      "stateMutability": "view",
      "type": "function"
    },
    {
      "constant": true,
      "inputs": [],
      "name": "balance",
      "outputs": [
        {
          "name": "",
          "type": "uint256"
        }
      ],
      "payable": false,
      "stateMutability": "view",
      "type": "function"
    },
    {
      "anonymous": false,
      "inputs": [
        {
          "indexed": false,
          "name": "name",
          "type": "string"
        },
        {
          "indexed": false,
          "name": "senior",
          "type": "bool"
        }
      ],
      "name": "personCreated",
      "type": "event"
    },
    {
      "anonymous": false,
      "inputs": [
        {
          "indexed": false,
          "name": "name",
          "type": "string"
        },
        {
          "indexed": false,
          "name": "senior",
          "type": "bool"
        },
        {
          "indexed": false,
          "name": "deletedBy",
          "type": "address"
        }
      ],
      "name": "personDeleted",
      "type": "event"
    },
    {
      "constant": false,
      "inputs": [
        {
          "name": "name",
          "type": "string"
        },
        {
          "name": "age",
          "type": "uint256"
        },
        {
          "name": "height",
          "type": "uint256"
        }
      ],
      "name": "createPerson",
      "outputs": [],
      "payable": true,
      "stateMutability": "payable",
      "type": "function"
    },
    {
      "constant": true,
      "inputs": [],
      "name": "getPerson",
      "outputs": [
        {
          "name": "name",
          "type": "string"
        },
        {
          "name": "age",
          "type": "uint256"
        },
        {
          "name": "height",
          "type": "uint256"
        },
        {
          "name": "senior",
          "type": "bool"
        }
      ],
      "payable": false,
      "stateMutability": "view",
      "type": "function"
    },
    {
      "constant": false,
      "inputs": [
        {
          "name": "creator",
          "type": "address"
        }
      ],
      "name": "deletePerson",
      "outputs": [],
      "payable": false,
      "stateMutability": "nonpayable",
      "type": "function"
    },
    {
      "constant": true,
      "inputs": [
        {
          "name": "index",
          "type": "uint256"
        }
      ],
      "name": "getCreator",
      "outputs": [
        {
          "name": "",
          "type": "address"
        }
      ],
      "payable": false,
      "stateMutability": "view",
      "type": "function"
    },
    {
      "constant": false,
      "inputs": [],
      "name": "withdrawAll",
      "outputs": [
        {
          "name": "",
          "type": "uint256"
        }
      ],
      "payable": false,
      "stateMutability": "nonpayable",
      "type": "function"
    }
  ],
  "bytecode": "0x6080604052336000806101000a81548173ffffffffffffffffffffffffffffffffffffffff021916908373ffffffffffffffffffffffffffffffffffffffff1602179055506110ed806100536000396000f3fe60806040526004361061008d576000357c0100000000000000000000000000000000000000000000000000000000900480638ec4dc951161006b5780638ec4dc9514610165578063b69ef8a81461020e578063d48e638a14610239578063fce82d71146102b45761008d565b8063102cda4a14610092578063853828b6146100e35780638da5cb5b1461010e575b600080fd5b34801561009e57600080fd5b506100e1600480360360208110156100b557600080fd5b81019080803573ffffffffffffffffffffffffffffffffffffffff169060200190929190505050610383565b005b3480156100ef57600080fd5b506100f86106df565b6040518082815260200191505060405180910390f35b34801561011a57600080fd5b50610123610799565b604051808273ffffffffffffffffffffffffffffffffffffffff1673ffffffffffffffffffffffffffffffffffffffff16815260200191505060405180910390f35b34801561017157600080fd5b5061017a6107be565b604051808060200185815260200184815260200183151515158152602001828103825286818151815260200191508051906020019080838360005b838110156101d05780820151818401526020810190506101b5565b50505050905090810190601f1680156101fd5780820380516001836020036101000a031916815260200191505b509550505050505060405180910390f35b34801561021a57600080fd5b5061022361098c565b6040518082815260200191505060405180910390f35b34801561024557600080fd5b506102726004803603602081101561025c57600080fd5b8101908080359060200190929190505050610992565b604051808273ffffffffffffffffffffffffffffffffffffffff1673ffffffffffffffffffffffffffffffffffffffff16815260200191505060405180910390f35b610381600480360360608110156102ca57600080fd5b81019080803590602001906401000000008111156102e757600080fd5b8201836020820111156102f957600080fd5b8035906020019184600183028401116401000000008311171561031b57600080fd5b91908080601f016020809104026020016040519081016040528093929190818152602001838380828437600081840152601f19601f8201169050808301925050505050505091929192908035906020019092919080359060200190929190505050610a30565b005b6000809054906101000a900473ffffffffffffffffffffffffffffffffffffffff1673ffffffffffffffffffffffffffffffffffffffff163373ffffffffffffffffffffffffffffffffffffffff161415156103de57600080fd5b6060600260008373ffffffffffffffffffffffffffffffffffffffff1673ffffffffffffffffffffffffffffffffffffffff1681526020019081526020016000206001018054600181600116156101000203166002900480601f0160208091040260200160405190810160405280929190818152602001828054600181600116156101000203166002900480156104b65780601f1061048b576101008083540402835291602001916104b6565b820191906000526020600020905b81548152906001019060200180831161049957829003601f168201915b505050505090506000600260008473ffffffffffffffffffffffffffffffffffffffff1673ffffffffffffffffffffffffffffffffffffffff16815260200190815260200160002060040160009054906101000a900460ff169050600260008473ffffffffffffffffffffffffffffffffffffffff1673ffffffffffffffffffffffffffffffffffffffff1681526020019081526020016000206000808201600090556001820160006105699190610fa2565b600282016000905560038201600090556004820160006101000a81549060ff021916905550506000600260008573ffffffffffffffffffffffffffffffffffffffff1673ffffffffffffffffffffffffffffffffffffffff168152602001908152602001600020600201541415156105dd57fe5b7fce505ea5e5a360ed968bacfdf5b52e168dfe627776422d678cb12143ebe187c882826000809054906101000a900473ffffffffffffffffffffffffffffffffffffffff166040518080602001841515151581526020018373ffffffffffffffffffffffffffffffffffffffff1673ffffffffffffffffffffffffffffffffffffffff168152602001828103825285818151815260200191508051906020019080838360005b8381101561069e578082015181840152602081019050610683565b50505050905090810190601f1680156106cb5780820380516001836020036101000a031916815260200191505b5094505050505060405180910390a1505050565b60008060009054906101000a900473ffffffffffffffffffffffffffffffffffffffff1673ffffffffffffffffffffffffffffffffffffffff163373ffffffffffffffffffffffffffffffffffffffff1614151561073c57600080fd5b6000600154905060006001819055503373ffffffffffffffffffffffffffffffffffffffff166108fc829081150290604051600060405180830381858888f19350505050158015610791573d6000803e3d6000fd5b508091505090565b6000809054906101000a900473ffffffffffffffffffffffffffffffffffffffff1681565b6060600080600080339050600260008273ffffffffffffffffffffffffffffffffffffffff1673ffffffffffffffffffffffffffffffffffffffff168152602001908152602001600020600101600260008373ffffffffffffffffffffffffffffffffffffffff1673ffffffffffffffffffffffffffffffffffffffff16815260200190815260200160002060020154600260008473ffffffffffffffffffffffffffffffffffffffff1673ffffffffffffffffffffffffffffffffffffffff16815260200190815260200160002060030154600260008573ffffffffffffffffffffffffffffffffffffffff1673ffffffffffffffffffffffffffffffffffffffff16815260200190815260200160002060040160009054906101000a900460ff16838054600181600116156101000203166002900480601f0160208091040260200160405190810160405280929190818152602001828054600181600116156101000203166002900480156109765780601f1061094b57610100808354040283529160200191610976565b820191906000526020600020905b81548152906001019060200180831161095957829003601f168201915b5050505050935094509450945094505090919293565b60015481565b60008060009054906101000a900473ffffffffffffffffffffffffffffffffffffffff1673ffffffffffffffffffffffffffffffffffffffff163373ffffffffffffffffffffffffffffffffffffffff161415156109ef57600080fd5b6003828154811015156109fe57fe5b9060005260206000200160009054906101000a900473ffffffffffffffffffffffffffffffffffffffff169050919050565b670de0b6b3a7640000803410151515610a4857600080fd5b609683101515610ac0576040517f08c379a00000000000000000000000000000000000000000000000000000000081526004018080602001828103825260198152602001807f416765206e6565647320746f2062652062656c6f77203135300000000000000081525060200191505060405180910390fd5b670de0b6b3a76400003410151515610ad757600080fd5b34600160008282540192505081905550610aef610fea565b8481602001819052508381604001818152505082816060018181525050604184101515610b2c576001816080019015159081151581525050610b3e565b60008160800190151590811515815250505b610b4781610efb565b60033390806001815401808255809150509060018203906000526020600020016000909192909190916101000a81548173ffffffffffffffffffffffffffffffffffffffff021916908373ffffffffffffffffffffffffffffffffffffffff1602179055505080602001518160400151826060015183608001516040516020018085805190602001908083835b602083101515610bf95780518252602082019150602081019050602083039250610bd4565b6001836020036101000a03801982511681845116808217855250505050505090500184815260200183815260200182151515157f010000000000000000000000000000000000000000000000000000000000000002815260010194505050505060405160208183030381529060405280519060200120600260003373ffffffffffffffffffffffffffffffffffffffff1673ffffffffffffffffffffffffffffffffffffffff168152602001908152602001600020600101600260003373ffffffffffffffffffffffffffffffffffffffff1673ffffffffffffffffffffffffffffffffffffffff16815260200190815260200160002060020154600260003373ffffffffffffffffffffffffffffffffffffffff1673ffffffffffffffffffffffffffffffffffffffff16815260200190815260200160002060030154600260003373ffffffffffffffffffffffffffffffffffffffff1673ffffffffffffffffffffffffffffffffffffffff16815260200190815260200160002060040160009054906101000a900460ff166040516020018085805460018160011615610100020316600290048015610de55780601f10610dc3576101008083540402835291820191610de5565b820191906000526020600020905b815481529060010190602001808311610dd1575b505084815260200183815260200182151515157f010000000000000000000000000000000000000000000000000000000000000002815260010194505050505060405160208183030381529060405280519060200120141515610e4457fe5b7f483a95908cf8068144f424e2adef59ae102592afd2706bb3d37a620b6a2304e781602001518260800151604051808060200183151515158152602001828103825284818151815260200191508051906020019080838360005b83811015610eb9578082015181840152602081019050610e9e565b50505050905090810190601f168015610ee65780820380516001836020036101000a031916815260200191505b50935050505060405180910390a15050505050565b600033905081600260008373ffffffffffffffffffffffffffffffffffffffff1673ffffffffffffffffffffffffffffffffffffffff168152602001908152602001600020600082015181600001556020820151816001019080519060200190610f6692919061101c565b50604082015181600201556060820151816003015560808201518160040160006101000a81548160ff0219169083151502179055509050505050565b50805460018160011615610100020316600290046000825580601f10610fc85750610fe7565b601f016020900490600052602060002090810190610fe6919061109c565b5b50565b60a060405190810160405280600081526020016060815260200160008152602001600081526020016000151581525090565b828054600181600116156101000203166002900490600052602060002090601f016020900481019282601f1061105d57805160ff191683800117855561108b565b8280016001018555821561108b579182015b8281111561108a57825182559160200191906001019061106f565b5b509050611098919061109c565b5090565b6110be91905b808211156110ba5760008160009055506001016110a2565b5090565b9056fea165627a7a7230582083649347be49890d99ac43c3e032a47bdd12bc8ded743059eec534ae783ffc500029",
  "source": "import \"./Ownable.sol\";\r\npragma solidity 0.5.2;\r\n\r\ncontract HelloWorld is Ownable{\r\n\r\n    struct Person {\r\n      uint id;\r\n      string name;\r\n      uint age;\r\n      uint height;\r\n      bool senior;\r\n    }\r\n\r\n    event personCreated(string name, bool senior);\r\n    event personDeleted(string name, bool senior, address deletedBy);\r\n\r\n    uint public balance;\r\n\r\n    modifier costs(uint cost){\r\n        require(msg.value >= cost);\r\n        _;\r\n    }\r\n\r\n    mapping (address => Person) private people;\r\n    address[] private creators;\r\n\r\n    function createPerson(string memory name, uint age, uint height) public payable costs(1 ether){\r\n      require(age < 150, \"Age needs to be below 150\");\r\n      require(msg.value >= 1 ether);\r\n      balance += msg.value;\r\n\r\n        //This creates a person\r\n        Person memory newPerson;\r\n        newPerson.name = name;\r\n        newPerson.age = age;\r\n        newPerson.height = height;\r\n\r\n        if(age >= 65){\r\n           newPerson.senior = true;\r\n       }\r\n       else{\r\n           newPerson.senior = false;\r\n       }\r\n\r\n        insertPerson(newPerson);\r\n        creators.push(msg.sender);\r\n\r\n        assert(\r\n            keccak256(\r\n                abi.encodePacked(\r\n                    people[msg.sender].name,\r\n                    people[msg.sender].age,\r\n                    people[msg.sender].height,\r\n                    people[msg.sender].senior\r\n                )\r\n            )\r\n            ==\r\n            keccak256(\r\n                abi.encodePacked(\r\n                    newPerson.name,\r\n                    newPerson.age,\r\n                    newPerson.height,\r\n                    newPerson.senior\r\n                )\r\n            )\r\n        );\r\n        emit personCreated(newPerson.name, newPerson.senior);\r\n    }\r\n    function insertPerson(Person memory newPerson) private {\r\n        address creator = msg.sender;\r\n        people[creator] = newPerson;\r\n    }\r\n    function getPerson() public view returns(string memory name, uint age, uint height, bool senior){\r\n        address creator = msg.sender;\r\n        return (people[creator].name, people[creator].age, people[creator].height, people[creator].senior);\r\n    }\r\n    function deletePerson(address creator) public onlyOwner {\r\n      string memory name = people[creator].name;\r\n      bool senior = people[creator].senior;\r\n\r\n       delete people[creator];\r\n       assert(people[creator].age == 0);\r\n       emit personDeleted(name, senior, owner);\r\n   }\r\n   function getCreator(uint index) public view onlyOwner returns(address){\r\n       return creators[index];\r\n   }\r\n   function withdrawAll() public onlyOwner returns(uint) {\r\n       uint toTransfer = balance;\r\n       balance = 0;\r\n       msg.sender.transfer(toTransfer);\r\n       return toTransfer;\r\n   }\r\n\r\n}",
  "sourcePath": "C:/Users/evanm/OneDrive/Documents/EthereumProgramming/Solidity-201/UnitTesting/contracts/people.sol",
  "compiler": {
    "name": "solc",
    "version": "0.5.2+commit.1df8f40c.Emscripten.clang"
  },
  "schemaVersion": "3.3.4",
  "updatedAt": "2021-05-22T10:53:33.178Z",
  "devdoc": {
    "methods": {}
  },
  "userdoc": {
    "methods": {}
  }
}