{
  "contractName": "MyToken",
  "abi": [
    {
      "inputs": [
        {
          "internalType": "uint256",
          "name": "cap",
          "type": "uint256"
        }
      ],
      "stateMutability": "nonpayable",
      "type": "constructor"
    },
    {
      "anonymous": false,
      "inputs": [
        {
          "indexed": true,
          "internalType": "address",
          "name": "owner",
          "type": "address"
        },
        {
          "indexed": true,
          "internalType": "address",
          "name": "spender",
          "type": "address"
        },
        {
          "indexed": false,
          "internalType": "uint256",
          "name": "value",
          "type": "uint256"
        }
      ],
      "name": "Approval",
      "type": "event"
    },
    {
      "anonymous": false,
      "inputs": [
        {
          "indexed": false,
          "internalType": "address",
          "name": "minter",
          "type": "address"
        },
        {
          "indexed": false,
          "internalType": "uint256",
          "name": "amount",
          "type": "uint256"
        }
      ],
      "name": "Minted",
      "type": "event"
    },
    {
      "anonymous": false,
      "inputs": [
        {
          "indexed": true,
          "internalType": "address",
          "name": "previousOwner",
          "type": "address"
        },
        {
          "indexed": true,
          "internalType": "address",
          "name": "newOwner",
          "type": "address"
        }
      ],
      "name": "OwnershipTransferred",
      "type": "event"
    },
    {
      "anonymous": false,
      "inputs": [
        {
          "indexed": true,
          "internalType": "address",
          "name": "from",
          "type": "address"
        },
        {
          "indexed": true,
          "internalType": "address",
          "name": "to",
          "type": "address"
        },
        {
          "indexed": false,
          "internalType": "uint256",
          "name": "value",
          "type": "uint256"
        }
      ],
      "name": "Transfer",
      "type": "event"
    },
    {
      "anonymous": false,
      "inputs": [
        {
          "indexed": false,
          "internalType": "address",
          "name": "by",
          "type": "address"
        },
        {
          "indexed": false,
          "internalType": "uint256",
          "name": "amount",
          "type": "uint256"
        }
      ],
      "name": "capIncreased",
      "type": "event"
    },
    {
      "inputs": [
        {
          "internalType": "address",
          "name": "owner",
          "type": "address"
        },
        {
          "internalType": "address",
          "name": "spender",
          "type": "address"
        }
      ],
      "name": "allowance",
      "outputs": [
        {
          "internalType": "uint256",
          "name": "",
          "type": "uint256"
        }
      ],
      "stateMutability": "view",
      "type": "function",
      "constant": true
    },
    {
      "inputs": [
        {
          "internalType": "address",
          "name": "spender",
          "type": "address"
        },
        {
          "internalType": "uint256",
          "name": "amount",
          "type": "uint256"
        }
      ],
      "name": "approve",
      "outputs": [
        {
          "internalType": "bool",
          "name": "",
          "type": "bool"
        }
      ],
      "stateMutability": "nonpayable",
      "type": "function"
    },
    {
      "inputs": [
        {
          "internalType": "address",
          "name": "account",
          "type": "address"
        }
      ],
      "name": "balanceOf",
      "outputs": [
        {
          "internalType": "uint256",
          "name": "",
          "type": "uint256"
        }
      ],
      "stateMutability": "view",
      "type": "function",
      "constant": true
    },
    {
      "inputs": [],
      "name": "decimals",
      "outputs": [
        {
          "internalType": "uint8",
          "name": "",
          "type": "uint8"
        }
      ],
      "stateMutability": "view",
      "type": "function",
      "constant": true
    },
    {
      "inputs": [
        {
          "internalType": "address",
          "name": "spender",
          "type": "address"
        },
        {
          "internalType": "uint256",
          "name": "subtractedValue",
          "type": "uint256"
        }
      ],
      "name": "decreaseAllowance",
      "outputs": [
        {
          "internalType": "bool",
          "name": "",
          "type": "bool"
        }
      ],
      "stateMutability": "nonpayable",
      "type": "function"
    },
    {
      "inputs": [
        {
          "internalType": "address",
          "name": "spender",
          "type": "address"
        },
        {
          "internalType": "uint256",
          "name": "addedValue",
          "type": "uint256"
        }
      ],
      "name": "increaseAllowance",
      "outputs": [
        {
          "internalType": "bool",
          "name": "",
          "type": "bool"
        }
      ],
      "stateMutability": "nonpayable",
      "type": "function"
    },
    {
      "inputs": [],
      "name": "name",
      "outputs": [
        {
          "internalType": "string",
          "name": "",
          "type": "string"
        }
      ],
      "stateMutability": "view",
      "type": "function",
      "constant": true
    },
    {
      "inputs": [],
      "name": "owner",
      "outputs": [
        {
          "internalType": "address",
          "name": "",
          "type": "address"
        }
      ],
      "stateMutability": "view",
      "type": "function",
      "constant": true
    },
    {
      "inputs": [],
      "name": "renounceOwnership",
      "outputs": [],
      "stateMutability": "nonpayable",
      "type": "function"
    },
    {
      "inputs": [],
      "name": "symbol",
      "outputs": [
        {
          "internalType": "string",
          "name": "",
          "type": "string"
        }
      ],
      "stateMutability": "view",
      "type": "function",
      "constant": true
    },
    {
      "inputs": [],
      "name": "totalSupply",
      "outputs": [
        {
          "internalType": "uint256",
          "name": "",
          "type": "uint256"
        }
      ],
      "stateMutability": "view",
      "type": "function",
      "constant": true
    },
    {
      "inputs": [
        {
          "internalType": "address",
          "name": "sender",
          "type": "address"
        },
        {
          "internalType": "address",
          "name": "recipient",
          "type": "address"
        },
        {
          "internalType": "uint256",
          "name": "amount",
          "type": "uint256"
        }
      ],
      "name": "transferFrom",
      "outputs": [
        {
          "internalType": "bool",
          "name": "",
          "type": "bool"
        }
      ],
      "stateMutability": "nonpayable",
      "type": "function"
    },
    {
      "inputs": [
        {
          "internalType": "address",
          "name": "newOwner",
          "type": "address"
        }
      ],
      "name": "transferOwnership",
      "outputs": [],
      "stateMutability": "nonpayable",
      "type": "function"
    },
    {
      "inputs": [],
      "name": "cap",
      "outputs": [
        {
          "internalType": "uint256",
          "name": "",
          "type": "uint256"
        }
      ],
      "stateMutability": "view",
      "type": "function",
      "constant": true
    },
    {
      "inputs": [
        {
          "internalType": "uint256",
          "name": "_amount",
          "type": "uint256"
        }
      ],
      "name": "IncreaseCap",
      "outputs": [
        {
          "internalType": "uint256",
          "name": "",
          "type": "uint256"
        }
      ],
      "stateMutability": "nonpayable",
      "type": "function"
    },
    {
      "inputs": [
        {
          "internalType": "uint256",
          "name": "_amount",
          "type": "uint256"
        }
      ],
      "name": "_mint",
      "outputs": [
        {
          "internalType": "bool",
          "name": "_success",
          "type": "bool"
        }
      ],
      "stateMutability": "nonpayable",
      "type": "function"
    },
    {
      "inputs": [
        {
          "internalType": "address",
          "name": "recipient",
          "type": "address"
        },
        {
          "internalType": "uint256",
          "name": "amount",
          "type": "uint256"
        }
      ],
      "name": "transfer",
      "outputs": [
        {
          "internalType": "bool",
          "name": "_success",
          "type": "bool"
        }
      ],
      "stateMutability": "nonpayable",
      "type": "function"
    },
    {
      "inputs": [],
      "name": "isPaused",
      "outputs": [
        {
          "internalType": "bool",
          "name": "",
          "type": "bool"
        }
      ],
      "stateMutability": "view",
      "type": "function",
      "constant": true
    },
    {
      "inputs": [],
      "name": "pause",
      "outputs": [],
      "stateMutability": "nonpayable",
      "type": "function"
    },
    {
      "inputs": [],
      "name": "unpause",
      "outputs": [],
      "stateMutability": "nonpayable",
      "type": "function"
    },
    {
      "inputs": [
        {
          "internalType": "address",
          "name": "account",
          "type": "address"
        },
        {
          "internalType": "uint256",
          "name": "amount",
          "type": "uint256"
        }
      ],
      "name": "burn",
      "outputs": [],
      "stateMutability": "nonpayable",
      "type": "function"
    },
    {
      "inputs": [
        {
          "internalType": "address",
          "name": "account",
          "type": "address"
        }
      ],
      "name": "accountBalance",
      "outputs": [
        {
          "internalType": "uint256",
          "name": "",
          "type": "uint256"
        }
      ],
      "stateMutability": "view",
      "type": "function",
      "constant": true
    }
  ],
  "bytecode": "0x60806040523480156200001157600080fd5b506040516200271a3803806200271a8339818101604052810190620000379190620002c6565b6040518060400160405280600781526020017f4d79546f6b656e000000000000000000000000000000000000000000000000008152506040518060400160405280600481526020017f4d544b4e000000000000000000000000000000000000000000000000000000008152508160039080519060200190620000bb929190620001ff565b508060049080519060200190620000d4929190620001ff565b5050506000620000e9620001f760201b60201c565b905080600560006101000a81548173ffffffffffffffffffffffffffffffffffffffff021916908373ffffffffffffffffffffffffffffffffffffffff1602179055508073ffffffffffffffffffffffffffffffffffffffff16600073ffffffffffffffffffffffffffffffffffffffff167f8be0079c531659141344cd1fd0a4f28419497f9722a3daafe3b4186f6b6457e060405160405180910390a35060008111620001ce576040517f08c379a0000000000000000000000000000000000000000000000000000000008152600401620001c5906200035a565b60405180910390fd5b806006819055506000600560146101000a81548160ff0219169083151502179055505062000416565b600033905090565b8280546200020d9062000397565b90600052602060002090601f0160209004810192826200023157600085556200027d565b82601f106200024c57805160ff19168380011785556200027d565b828001600101855582156200027d579182015b828111156200027c5782518255916020019190600101906200025f565b5b5090506200028c919062000290565b5090565b5b80821115620002ab57600081600090555060010162000291565b5090565b600081519050620002c081620003fc565b92915050565b600060208284031215620002d957600080fd5b6000620002e984828501620002af565b91505092915050565b6000620003016036836200037c565b91507f54686520696e6974616c20636170206d75737420626520657175616c20746f2060008301527f612076616c75652067726561746572207468616e2030000000000000000000006020830152604082019050919050565b600060208201905081810360008301526200037581620002f2565b9050919050565b600082825260208201905092915050565b6000819050919050565b60006002820490506001821680620003b057607f821691505b60208210811415620003c757620003c6620003cd565b5b50919050565b7f4e487b7100000000000000000000000000000000000000000000000000000000600052602260045260246000fd5b62000407816200038d565b81146200041357600080fd5b50565b6122f480620004266000396000f3fe608060405234801561001057600080fd5b50600436106101425760003560e01c80638456cb59116100b8578063a9059cbb1161007c578063a9059cbb14610355578063b187bd2614610385578063d294cb0f146103a3578063dd62ed3e146103d3578063f2fde38b14610403578063f4efe8fa1461041f57610142565b80638456cb59146102c35780638da5cb5b146102cd57806395d89b41146102eb5780639dc29fac14610309578063a457c2d71461032557610142565b8063313ce5671161010a578063313ce56714610213578063355274ea14610231578063395093511461024f5780633f4ba83a1461027f57806370a0823114610289578063715018a6146102b957610142565b806306fdde0314610147578063095ea7b31461016557806318160ddd1461019557806323b872dd146101b35780632c526196146101e3575b600080fd5b61014f61044f565b60405161015c9190611ea9565b60405180910390f35b61017f600480360381019061017a919061184e565b6104e1565b60405161018c9190611e8e565b60405180910390f35b61019d6104ff565b6040516101aa919061208b565b60405180910390f35b6101cd60048036038101906101c891906117ff565b610509565b6040516101da9190611e8e565b60405180910390f35b6101fd60048036038101906101f8919061188a565b61060a565b60405161020a9190611e8e565b60405180910390f35b61021b610672565b60405161022891906120a6565b60405180910390f35b61023961067b565b604051610246919061208b565b60405180910390f35b6102696004803603810190610264919061184e565b610685565b6040516102769190611e8e565b60405180910390f35b610287610731565b005b6102a3600480360381019061029e919061179a565b610819565b6040516102b0919061208b565b60405180910390f35b6102c1610861565b005b6102cb61099e565b005b6102d5610a87565b6040516102e29190611e4a565b60405180910390f35b6102f3610ab1565b6040516103009190611ea9565b60405180910390f35b610323600480360381019061031e919061184e565b610b43565b005b61033f600480360381019061033a919061184e565b610b51565b60405161034c9190611e8e565b60405180910390f35b61036f600480360381019061036a919061184e565b610c45565b60405161037c9190611e8e565b60405180910390f35b61038d610c76565b60405161039a9190611e8e565b60405180910390f35b6103bd60048036038101906103b8919061179a565b610c8d565b6040516103ca919061208b565b60405180910390f35b6103ed60048036038101906103e891906117c3565b610c9f565b6040516103fa919061208b565b60405180910390f35b61041d6004803603810190610418919061179a565b610d26565b005b6104396004803603810190610434919061188a565b610ed2565b604051610446919061208b565b60405180910390f35b60606003805461045e906121ef565b80601f016020809104026020016040519081016040528092919081815260200182805461048a906121ef565b80156104d75780601f106104ac576101008083540402835291602001916104d7565b820191906000526020600020905b8154815290600101906020018083116104ba57829003601f168201915b5050505050905090565b60006104f56104ee610fb4565b8484610fbc565b6001905092915050565b6000600254905090565b6000610516848484611187565b6000600160008673ffffffffffffffffffffffffffffffffffffffff1673ffffffffffffffffffffffffffffffffffffffff1681526020019081526020016000206000610561610fb4565b73ffffffffffffffffffffffffffffffffffffffff1673ffffffffffffffffffffffffffffffffffffffff168152602001908152602001600020549050828110156105e1576040517f08c379a00000000000000000000000000000000000000000000000000000000081526004016105d890611f8b565b60405180910390fd5b6105fe856105ed610fb4565b85846105f99190612133565b610fbc565b60019150509392505050565b6000600560149054906101000a900460ff161561062657600080fd5b6106303383611406565b7f30385c845b448a36257a6a1716e6ad2e1bc2cbe333cde1e69fe849ad6511adfe3383604051610661929190611e65565b60405180910390a160019050919050565b60006012905090565b6000600654905090565b6000610727610692610fb4565b8484600160006106a0610fb4565b73ffffffffffffffffffffffffffffffffffffffff1673ffffffffffffffffffffffffffffffffffffffff16815260200190815260200160002060008873ffffffffffffffffffffffffffffffffffffffff1673ffffffffffffffffffffffffffffffffffffffff1681526020019081526020016000205461072291906120dd565b610fbc565b6001905092915050565b610739610fb4565b73ffffffffffffffffffffffffffffffffffffffff16610757610a87565b73ffffffffffffffffffffffffffffffffffffffff16146107ad576040517f08c379a00000000000000000000000000000000000000000000000000000000081526004016107a490611fab565b60405180910390fd5b600560149054906101000a900460ff166107fc576040517f08c379a00000000000000000000000000000000000000000000000000000000081526004016107f390611f4b565b60405180910390fd5b6000600560146101000a81548160ff021916908315150217905550565b60008060008373ffffffffffffffffffffffffffffffffffffffff1673ffffffffffffffffffffffffffffffffffffffff168152602001908152602001600020549050919050565b610869610fb4565b73ffffffffffffffffffffffffffffffffffffffff16610887610a87565b73ffffffffffffffffffffffffffffffffffffffff16146108dd576040517f08c379a00000000000000000000000000000000000000000000000000000000081526004016108d490611fab565b60405180910390fd5b600073ffffffffffffffffffffffffffffffffffffffff16600560009054906101000a900473ffffffffffffffffffffffffffffffffffffffff1673ffffffffffffffffffffffffffffffffffffffff167f8be0079c531659141344cd1fd0a4f28419497f9722a3daafe3b4186f6b6457e060405160405180910390a36000600560006101000a81548173ffffffffffffffffffffffffffffffffffffffff021916908373ffffffffffffffffffffffffffffffffffffffff160217905550565b6109a6610fb4565b73ffffffffffffffffffffffffffffffffffffffff166109c4610a87565b73ffffffffffffffffffffffffffffffffffffffff1614610a1a576040517f08c379a0000000000000000000000000000000000000000000000000000000008152600401610a1190611fab565b60405180910390fd5b600560149054906101000a900460ff1615610a6a576040517f08c379a0000000000000000000000000000000000000000000000000000000008152600401610a6190611fcb565b60405180910390fd5b6001600560146101000a81548160ff021916908315150217905550565b6000600560009054906101000a900473ffffffffffffffffffffffffffffffffffffffff16905090565b606060048054610ac0906121ef565b80601f0160208091040260200160405190810160405280929190818152602001828054610aec906121ef565b8015610b395780601f10610b0e57610100808354040283529160200191610b39565b820191906000526020600020905b815481529060010190602001808311610b1c57829003601f168201915b5050505050905090565b610b4d828261155a565b5050565b60008060016000610b60610fb4565b73ffffffffffffffffffffffffffffffffffffffff1673ffffffffffffffffffffffffffffffffffffffff16815260200190815260200160002060008573ffffffffffffffffffffffffffffffffffffffff1673ffffffffffffffffffffffffffffffffffffffff16815260200190815260200160002054905082811015610c1d576040517f08c379a0000000000000000000000000000000000000000000000000000000008152600401610c149061204b565b60405180910390fd5b610c3a610c28610fb4565b858584610c359190612133565b610fbc565b600191505092915050565b6000600560149054906101000a900460ff1615610c6157600080fd5b610c6b838361172e565b506001905092915050565b6000600560149054906101000a900460ff16905090565b6000610c9882610819565b9050919050565b6000600160008473ffffffffffffffffffffffffffffffffffffffff1673ffffffffffffffffffffffffffffffffffffffff16815260200190815260200160002060008373ffffffffffffffffffffffffffffffffffffffff1673ffffffffffffffffffffffffffffffffffffffff16815260200190815260200160002054905092915050565b610d2e610fb4565b73ffffffffffffffffffffffffffffffffffffffff16610d4c610a87565b73ffffffffffffffffffffffffffffffffffffffff1614610da2576040517f08c379a0000000000000000000000000000000000000000000000000000000008152600401610d9990611fab565b60405180910390fd5b600073ffffffffffffffffffffffffffffffffffffffff168173ffffffffffffffffffffffffffffffffffffffff161415610e12576040517f08c379a0000000000000000000000000000000000000000000000000000000008152600401610e0990611f0b565b60405180910390fd5b8073ffffffffffffffffffffffffffffffffffffffff16600560009054906101000a900473ffffffffffffffffffffffffffffffffffffffff1673ffffffffffffffffffffffffffffffffffffffff167f8be0079c531659141344cd1fd0a4f28419497f9722a3daafe3b4186f6b6457e060405160405180910390a380600560006101000a81548173ffffffffffffffffffffffffffffffffffffffff021916908373ffffffffffffffffffffffffffffffffffffffff16021790555050565b6000610edc610fb4565b73ffffffffffffffffffffffffffffffffffffffff16610efa610a87565b73ffffffffffffffffffffffffffffffffffffffff1614610f50576040517f08c379a0000000000000000000000000000000000000000000000000000000008152600401610f4790611fab565b60405180910390fd5b60008211610f5d57600080fd5b81600654610f6b91906120dd565b6006819055507f6483915a546f3879d08294793d495f42a8980e5ea2251a4e2889cef5ada90e223383604051610fa2929190611e65565b60405180910390a16006549050919050565b600033905090565b600073ffffffffffffffffffffffffffffffffffffffff168373ffffffffffffffffffffffffffffffffffffffff16141561102c576040517f08c379a00000000000000000000000000000000000000000000000000000000081526004016110239061202b565b60405180910390fd5b600073ffffffffffffffffffffffffffffffffffffffff168273ffffffffffffffffffffffffffffffffffffffff16141561109c576040517f08c379a000000000000000000000000000000000000000000000000000000000815260040161109390611f2b565b60405180910390fd5b80600160008573ffffffffffffffffffffffffffffffffffffffff1673ffffffffffffffffffffffffffffffffffffffff16815260200190815260200160002060008473ffffffffffffffffffffffffffffffffffffffff1673ffffffffffffffffffffffffffffffffffffffff168152602001908152602001600020819055508173ffffffffffffffffffffffffffffffffffffffff168373ffffffffffffffffffffffffffffffffffffffff167f8c5be1e5ebec7d5bd14f71427d1e84f3dd0314c0f7b2291e5b200ac8c7c3b9258360405161117a919061208b565b60405180910390a3505050565b600073ffffffffffffffffffffffffffffffffffffffff168373ffffffffffffffffffffffffffffffffffffffff1614156111f7576040517f08c379a00000000000000000000000000000000000000000000000000000000081526004016111ee9061200b565b60405180910390fd5b600073ffffffffffffffffffffffffffffffffffffffff168273ffffffffffffffffffffffffffffffffffffffff161415611267576040517f08c379a000000000000000000000000000000000000000000000000000000000815260040161125e90611ecb565b60405180910390fd5b61127283838361174c565b60008060008573ffffffffffffffffffffffffffffffffffffffff1673ffffffffffffffffffffffffffffffffffffffff168152602001908152602001600020549050818110156112f8576040517f08c379a00000000000000000000000000000000000000000000000000000000081526004016112ef90611f6b565b60405180910390fd5b81816113049190612133565b6000808673ffffffffffffffffffffffffffffffffffffffff1673ffffffffffffffffffffffffffffffffffffffff16815260200190815260200160002081905550816000808573ffffffffffffffffffffffffffffffffffffffff1673ffffffffffffffffffffffffffffffffffffffff168152602001908152602001600020600082825461139491906120dd565b925050819055508273ffffffffffffffffffffffffffffffffffffffff168473ffffffffffffffffffffffffffffffffffffffff167fddf252ad1be2c89b69c2b068fc378daa952ba7f163c4a11628f55a4df523b3ef846040516113f8919061208b565b60405180910390a350505050565b600073ffffffffffffffffffffffffffffffffffffffff168273ffffffffffffffffffffffffffffffffffffffff161415611476576040517f08c379a000000000000000000000000000000000000000000000000000000000815260040161146d9061206b565b60405180910390fd5b6114826000838361174c565b806002600082825461149491906120dd565b92505081905550806000808473ffffffffffffffffffffffffffffffffffffffff1673ffffffffffffffffffffffffffffffffffffffff16815260200190815260200160002060008282546114e991906120dd565b925050819055508173ffffffffffffffffffffffffffffffffffffffff16600073ffffffffffffffffffffffffffffffffffffffff167fddf252ad1be2c89b69c2b068fc378daa952ba7f163c4a11628f55a4df523b3ef8360405161154e919061208b565b60405180910390a35050565b600073ffffffffffffffffffffffffffffffffffffffff168273ffffffffffffffffffffffffffffffffffffffff1614156115ca576040517f08c379a00000000000000000000000000000000000000000000000000000000081526004016115c190611feb565b60405180910390fd5b6115d68260008361174c565b60008060008473ffffffffffffffffffffffffffffffffffffffff1673ffffffffffffffffffffffffffffffffffffffff1681526020019081526020016000205490508181101561165c576040517f08c379a000000000000000000000000000000000000000000000000000000000815260040161165390611eeb565b60405180910390fd5b81816116689190612133565b6000808573ffffffffffffffffffffffffffffffffffffffff1673ffffffffffffffffffffffffffffffffffffffff1681526020019081526020016000208190555081600260008282546116bc9190612133565b92505081905550600073ffffffffffffffffffffffffffffffffffffffff168373ffffffffffffffffffffffffffffffffffffffff167fddf252ad1be2c89b69c2b068fc378daa952ba7f163c4a11628f55a4df523b3ef84604051611721919061208b565b60405180910390a3505050565b600061174261173b610fb4565b8484611187565b6001905092915050565b60065481111561175b57600080fd5b61176683838361176b565b505050565b505050565b60008135905061177f81612290565b92915050565b600081359050611794816122a7565b92915050565b6000602082840312156117ac57600080fd5b60006117ba84828501611770565b91505092915050565b600080604083850312156117d657600080fd5b60006117e485828601611770565b92505060206117f585828601611770565b9150509250929050565b60008060006060848603121561181457600080fd5b600061182286828701611770565b935050602061183386828701611770565b925050604061184486828701611785565b9150509250925092565b6000806040838503121561186157600080fd5b600061186f85828601611770565b925050602061188085828601611785565b9150509250929050565b60006020828403121561189c57600080fd5b60006118aa84828501611785565b91505092915050565b6118bc81612167565b82525050565b6118cb81612179565b82525050565b60006118dc826120c1565b6118e681856120cc565b93506118f68185602086016121bc565b6118ff8161227f565b840191505092915050565b60006119176023836120cc565b91507f45524332303a207472616e7366657220746f20746865207a65726f206164647260008301527f65737300000000000000000000000000000000000000000000000000000000006020830152604082019050919050565b600061197d6022836120cc565b91507f45524332303a206275726e20616d6f756e7420657863656564732062616c616e60008301527f63650000000000000000000000000000000000000000000000000000000000006020830152604082019050919050565b60006119e36026836120cc565b91507f4f776e61626c653a206e6577206f776e657220697320746865207a65726f206160008301527f64647265737300000000000000000000000000000000000000000000000000006020830152604082019050919050565b6000611a496022836120cc565b91507f45524332303a20617070726f766520746f20746865207a65726f20616464726560008301527f73730000000000000000000000000000000000000000000000000000000000006020830152604082019050919050565b6000611aaf6021836120cc565b91507f5468697320636f6e747261746320697320616c726561647920756e706175736560008301527f64000000000000000000000000000000000000000000000000000000000000006020830152604082019050919050565b6000611b156026836120cc565b91507f45524332303a207472616e7366657220616d6f756e742065786365656473206260008301527f616c616e636500000000000000000000000000000000000000000000000000006020830152604082019050919050565b6000611b7b6028836120cc565b91507f45524332303a207472616e7366657220616d6f756e742065786365656473206160008301527f6c6c6f77616e63650000000000000000000000000000000000000000000000006020830152604082019050919050565b6000611be16020836120cc565b91507f4f776e61626c653a2063616c6c6572206973206e6f7420746865206f776e65726000830152602082019050919050565b6000611c21601f836120cc565b91507f5468697320636f6e747261746320697320616c726561647920706175736564006000830152602082019050919050565b6000611c616021836120cc565b91507f45524332303a206275726e2066726f6d20746865207a65726f2061646472657360008301527f73000000000000000000000000000000000000000000000000000000000000006020830152604082019050919050565b6000611cc76025836120cc565b91507f45524332303a207472616e736665722066726f6d20746865207a65726f20616460008301527f64726573730000000000000000000000000000000000000000000000000000006020830152604082019050919050565b6000611d2d6024836120cc565b91507f45524332303a20617070726f76652066726f6d20746865207a65726f2061646460008301527f72657373000000000000000000000000000000000000000000000000000000006020830152604082019050919050565b6000611d936025836120cc565b91507f45524332303a2064656372656173656420616c6c6f77616e63652062656c6f7760008301527f207a65726f0000000000000000000000000000000000000000000000000000006020830152604082019050919050565b6000611df9601f836120cc565b91507f45524332303a206d696e7420746f20746865207a65726f2061646472657373006000830152602082019050919050565b611e35816121a5565b82525050565b611e44816121af565b82525050565b6000602082019050611e5f60008301846118b3565b92915050565b6000604082019050611e7a60008301856118b3565b611e876020830184611e2c565b9392505050565b6000602082019050611ea360008301846118c2565b92915050565b60006020820190508181036000830152611ec381846118d1565b905092915050565b60006020820190508181036000830152611ee48161190a565b9050919050565b60006020820190508181036000830152611f0481611970565b9050919050565b60006020820190508181036000830152611f24816119d6565b9050919050565b60006020820190508181036000830152611f4481611a3c565b9050919050565b60006020820190508181036000830152611f6481611aa2565b9050919050565b60006020820190508181036000830152611f8481611b08565b9050919050565b60006020820190508181036000830152611fa481611b6e565b9050919050565b60006020820190508181036000830152611fc481611bd4565b9050919050565b60006020820190508181036000830152611fe481611c14565b9050919050565b6000602082019050818103600083015261200481611c54565b9050919050565b6000602082019050818103600083015261202481611cba565b9050919050565b6000602082019050818103600083015261204481611d20565b9050919050565b6000602082019050818103600083015261206481611d86565b9050919050565b6000602082019050818103600083015261208481611dec565b9050919050565b60006020820190506120a06000830184611e2c565b92915050565b60006020820190506120bb6000830184611e3b565b92915050565b600081519050919050565b600082825260208201905092915050565b60006120e8826121a5565b91506120f3836121a5565b9250827fffffffffffffffffffffffffffffffffffffffffffffffffffffffffffffffff0382111561212857612127612221565b5b828201905092915050565b600061213e826121a5565b9150612149836121a5565b92508282101561215c5761215b612221565b5b828203905092915050565b600061217282612185565b9050919050565b60008115159050919050565b600073ffffffffffffffffffffffffffffffffffffffff82169050919050565b6000819050919050565b600060ff82169050919050565b60005b838110156121da5780820151818401526020810190506121bf565b838111156121e9576000848401525b50505050565b6000600282049050600182168061220757607f821691505b6020821081141561221b5761221a612250565b5b50919050565b7f4e487b7100000000000000000000000000000000000000000000000000000000600052601160045260246000fd5b7f4e487b7100000000000000000000000000000000000000000000000000000000600052602260045260246000fd5b6000601f19601f8301169050919050565b61229981612167565b81146122a457600080fd5b50565b6122b0816121a5565b81146122bb57600080fd5b5056fea26469706673582212207e2d4279876bbff036748ed95702c97f16eddcc6bb33edef2a5879569f911d6b64736f6c63430008000033",
  "immutableReferences": {},
  "source": "// SPDX-License-Identifier: MIT\r\npragma solidity >=0.4.22 <0.9.0;\r\n\r\nimport \"../node_modules/@openzeppelin/contracts/token/ERC20/ERC20.sol\";\r\nimport \"../node_modules/@openzeppelin/contracts/token/ERC20/extensions/ERC20Capped.sol\";\r\nimport \"../node_modules/@openzeppelin/contracts/access/Ownable.sol\";\r\n\r\n//our token to be mintable\r\n//our token to be burnable\r\n//our token to be pausable\r\n//our token to have a cap\r\n\r\n\r\n//here ERC20Cappped inherits from ERC20 so we only referance ERC20Capped\r\ncontract MyToken is ERC20, Ownable {\r\n\r\n\r\n    bool private _paused;\r\n    uint256 private _cap;\r\n    //the ERC20 contratc requires us to define a constructor\r\n    //however we do need to specify the ERC20 and ERC20Capped constructors\r\n    constructor(uint256 cap) ERC20(\"MyToken\", \"MTKN\") {\r\n        require(cap > 0, \"The inital cap must be equal to a value greater than 0\");\r\n        _cap = cap;\r\n        _paused = false;\r\n    }\r\n\r\n\r\n    //all required events\r\n    event Minted(address minter, uint256 amount);\r\n    event capIncreased(address by, uint256 amount);\r\n   \r\n\r\n    function cap() public view returns(uint256) {\r\n\r\n        return _cap;\r\n    }\r\n\r\n    //function that modifies cap only callable by admin\r\n    function IncreaseCap(uint256 _amount) public onlyOwner returns (uint256 ) {\r\n\r\n        require(_amount > 0);\r\n        \r\n        _cap = _cap + _amount;\r\n\r\n        emit capIncreased(msg.sender, _amount);\r\n\r\n        return _cap;\r\n    }\r\n\r\n    //execute ERC20Capped outside the constructor\r\n    function _mint(uint256 _amount) public returns(bool _success) {\r\n        \r\n        require(!_paused);\r\n        //the mint is called from ERC20Capped which inherits mint\r\n        //from ERC20 but also has its own functionality on top namely\r\n        //the cap requirment\r\n        _mint(msg.sender, _amount);\r\n        emit Minted(msg.sender, _amount);\r\n        _success = true;\r\n\r\n        return _success;\r\n\r\n    }\r\n\r\n    \r\n\r\n    function transfer(address recipient, uint256 amount) public virtual override returns (bool _success) {\r\n\r\n        // require(accou == msg.sender);\r\n        require(!_paused);\r\n        ERC20.transfer(recipient, amount);\r\n        _success = true;\r\n\r\n        return _success;\r\n    }\r\n\r\n    //returns true if contract is paused, false otherwise\r\n    function isPaused() public view returns (bool) {\r\n        return _paused;\r\n\r\n    }\r\n\r\n    //function that pauses the contract. Can only be called by owner\r\n    function pause() public onlyOwner {\r\n\r\n        require(!_paused, \"This contratc is already paused\" );\r\n        //set _paused to true\r\n        _paused = true;    \r\n    }\r\n\r\n    //function that pauses the contract. Can only be called by owner\r\n    function unpause() public onlyOwner {\r\n\r\n        require(_paused, \"This contratc is already unpaused\" );\r\n        //set _paused to true\r\n        _paused = false;    \r\n    }\r\n    \r\n    //function which burns tokens\r\n    function burn(address account, uint256 amount) public virtual {\r\n        //require(account == msg.sender);\r\n        _burn(account, amount);\r\n    }\r\n\r\n    function accountBalance(address account) public view returns (uint256) {\r\n\r\n        return balanceOf(account);\r\n    }\r\n\r\n    function _beforeTokenTransfer(address from, address to, uint256 amount) internal override virtual {\r\n        require(amount <= _cap);\r\n        ERC20._beforeTokenTransfer(from, to, amount);\r\n\r\n        \r\n    }\r\n\r\n\r\n\r\n\r\n    \r\n\r\n    \r\n\r\n}",
  "sourcePath": "C:/Users/evanm/OneDrive/Documents/EthereumProgramming/Solidity-201/OpenZeppelin/contracts/myToken.sol",
  "compiler": {
    "name": "solc",
    "version": "0.8.0+commit.c7dfd78e.Emscripten.clang"
  },
  "schemaVersion": "3.3.4",
  "updatedAt": "2021-05-03T14:32:26.737Z",
  "networkType": "ethereum",
  "devdoc": {
    "kind": "dev",
    "methods": {
      "allowance(address,address)": {
        "details": "See {IERC20-allowance}."
      },
      "approve(address,uint256)": {
        "details": "See {IERC20-approve}. Requirements: - `spender` cannot be the zero address."
      },
      "balanceOf(address)": {
        "details": "See {IERC20-balanceOf}."
      },
      "decimals()": {
        "details": "Returns the number of decimals used to get its user representation. For example, if `decimals` equals `2`, a balance of `505` tokens should be displayed to a user as `5,05` (`505 / 10 ** 2`). Tokens usually opt for a value of 18, imitating the relationship between Ether and Wei. This is the value {ERC20} uses, unless this function is overridden; NOTE: This information is only used for _display_ purposes: it in no way affects any of the arithmetic of the contract, including {IERC20-balanceOf} and {IERC20-transfer}."
      },
      "decreaseAllowance(address,uint256)": {
        "details": "Atomically decreases the allowance granted to `spender` by the caller. This is an alternative to {approve} that can be used as a mitigation for problems described in {IERC20-approve}. Emits an {Approval} event indicating the updated allowance. Requirements: - `spender` cannot be the zero address. - `spender` must have allowance for the caller of at least `subtractedValue`."
      },
      "increaseAllowance(address,uint256)": {
        "details": "Atomically increases the allowance granted to `spender` by the caller. This is an alternative to {approve} that can be used as a mitigation for problems described in {IERC20-approve}. Emits an {Approval} event indicating the updated allowance. Requirements: - `spender` cannot be the zero address."
      },
      "name()": {
        "details": "Returns the name of the token."
      },
      "owner()": {
        "details": "Returns the address of the current owner."
      },
      "renounceOwnership()": {
        "details": "Leaves the contract without owner. It will not be possible to call `onlyOwner` functions anymore. Can only be called by the current owner. NOTE: Renouncing ownership will leave the contract without an owner, thereby removing any functionality that is only available to the owner."
      },
      "symbol()": {
        "details": "Returns the symbol of the token, usually a shorter version of the name."
      },
      "totalSupply()": {
        "details": "See {IERC20-totalSupply}."
      },
      "transfer(address,uint256)": {
        "details": "See {IERC20-transfer}. Requirements: - `recipient` cannot be the zero address. - the caller must have a balance of at least `amount`."
      },
      "transferFrom(address,address,uint256)": {
        "details": "See {IERC20-transferFrom}. Emits an {Approval} event indicating the updated allowance. This is not required by the EIP. See the note at the beginning of {ERC20}. Requirements: - `sender` and `recipient` cannot be the zero address. - `sender` must have a balance of at least `amount`. - the caller must have allowance for ``sender``'s tokens of at least `amount`."
      },
      "transferOwnership(address)": {
        "details": "Transfers ownership of the contract to a new account (`newOwner`). Can only be called by the current owner."
      }
    },
    "version": 1
  },
  "userdoc": {
    "kind": "user",
    "methods": {},
    "version": 1
  }
}