{
  "contractName": "HelloWorld",
  "abi": [
    {
      "constant": true,
      "inputs": [],
      "name": "my_string",
      "outputs": [
        {
          "internalType": "string",
          "name": "",
          "type": "string"
        }
      ],
      "payable": false,
      "stateMutability": "view",
      "type": "function"
    },
    {
      "constant": false,
      "inputs": [
        {
          "internalType": "string",
          "name": "newMessage",
          "type": "string"
        }
      ],
      "name": "setString",
      "outputs": [],
      "payable": false,
      "stateMutability": "nonpayable",
      "type": "function"
    },
    {
      "constant": true,
      "inputs": [],
      "name": "hello",
      "outputs": [
        {
          "internalType": "string",
          "name": "",
          "type": "string"
        }
      ],
      "payable": false,
      "stateMutability": "view",
      "type": "function"
    }
  ],
  "bytecode": "0x60806040526040518060400160405280600b81526020017f68656c6c6f20776f726c640000000000000000000000000000000000000000008152506000908051906020019061004f929190610062565b5034801561005c57600080fd5b50610107565b828054600181600116156101000203166002900490600052602060002090601f016020900481019282601f106100a357805160ff19168380011785556100d1565b828001600101855582156100d1579182015b828111156100d05782518255916020019190600101906100b5565b5b5090506100de91906100e2565b5090565b61010491905b808211156101005760008160009055506001016100e8565b5090565b90565b61043b806101166000396000f3fe608060405234801561001057600080fd5b50600436106100415760003560e01c806319ff1d21146100465780634f61d2d4146100c95780637fcaf6661461014c575b600080fd5b61004e610207565b6040518080602001828103825283818151815260200191508051906020019080838360005b8381101561008e578082015181840152602081019050610073565b50505050905090810190601f1680156100bb5780820380516001836020036101000a031916815260200191505b509250505060405180910390f35b6100d16102a9565b6040518080602001828103825283818151815260200191508051906020019080838360005b838110156101115780820151818401526020810190506100f6565b50505050905090810190601f16801561013e5780820380516001836020036101000a031916815260200191505b509250505060405180910390f35b6102056004803603602081101561016257600080fd5b810190808035906020019064010000000081111561017f57600080fd5b82018360208201111561019157600080fd5b803590602001918460018302840111640100000000831117156101b357600080fd5b91908080601f016020809104026020016040519081016040528093929190818152602001838380828437600081840152601f19601f820116905080830192505050505050509192919290505050610347565b005b606060008054600181600116156101000203166002900480601f01602080910402602001604051908101604052809291908181526020018280546001816001161561010002031660029004801561029f5780601f106102745761010080835404028352916020019161029f565b820191906000526020600020905b81548152906001019060200180831161028257829003601f168201915b5050505050905090565b60008054600181600116156101000203166002900480601f01602080910402602001604051908101604052809291908181526020018280546001816001161561010002031660029004801561033f5780601f106103145761010080835404028352916020019161033f565b820191906000526020600020905b81548152906001019060200180831161032257829003601f168201915b505050505081565b806000908051906020019061035d929190610361565b5050565b828054600181600116156101000203166002900490600052602060002090601f016020900481019282601f106103a257805160ff19168380011785556103d0565b828001600101855582156103d0579182015b828111156103cf5782518255916020019190600101906103b4565b5b5090506103dd91906103e1565b5090565b61040391905b808211156103ff5760008160009055506001016103e7565b5090565b9056fea265627a7a72315820ac64c55be6dae1fca4dd80267fb73bc3c9b6ddd60b04e586d72725c1fc9a8e0464736f6c63430005100032",
  "source": "// SPDX-License-Identifier: MIT\r\npragma solidity >=0.4.22 <0.9.0;\r\n\r\ncontract HelloWorld {\r\n\r\n    string public my_string = \"hello world\";\r\n\r\n    function setString(string memory newMessage) public {\r\n        my_string = newMessage;\r\n    }\r\n\r\n    function hello() public view returns(string memory) {\r\n\r\n        return my_string;\r\n    }\r\n}\r\n\r\n",
  "sourcePath": "C:/Users/evanm/OneDrive/Documents/EthereumProgramming/Solidity-201/Truffle/HelloWorld/contracts/helloWorld.sol",
  "compiler": {
    "name": "solc",
    "version": "0.5.16+commit.9c3226ce.Emscripten.clang"
  },
  "schemaVersion": "3.3.4",
  "updatedAt": "2021-05-03T10:32:18.939Z",
  "networkType": "ethereum",
  "devdoc": {
    "methods": {}
  },
  "userdoc": {
    "methods": {}
  }
}