{
  "contractName": "MultiSigWallet",
  "abi": [
    {
      "anonymous": false,
      "inputs": [
        {
          "indexed": false,
          "internalType": "uint256",
          "name": "_id",
          "type": "uint256"
        },
        {
          "indexed": false,
          "internalType": "uint256",
          "name": "_approvals",
          "type": "uint256"
        },
        {
          "indexed": false,
          "internalType": "address",
          "name": "_approver",
          "type": "address"
        }
      ],
      "name": "ApprovalReceived",
      "type": "event"
    },
    {
      "anonymous": false,
      "inputs": [
        {
          "indexed": false,
          "internalType": "uint256",
          "name": "_id",
          "type": "uint256"
        }
      ],
      "name": "TransferApproved",
      "type": "event"
    },
    {
      "anonymous": false,
      "inputs": [
        {
          "indexed": false,
          "internalType": "uint256",
          "name": "_id",
          "type": "uint256"
        },
        {
          "indexed": false,
          "internalType": "uint256",
          "name": "_amount",
          "type": "uint256"
        },
        {
          "indexed": false,
          "internalType": "address",
          "name": "_initiator",
          "type": "address"
        },
        {
          "indexed": false,
          "internalType": "address",
          "name": "_receiver",
          "type": "address"
        }
      ],
      "name": "TransferRequestCreated",
      "type": "event"
    },
    {
      "constant": true,
      "inputs": [],
      "name": "limit",
      "outputs": [
        {
          "internalType": "uint256",
          "name": "",
          "type": "uint256"
        }
      ],
      "payable": false,
      "stateMutability": "view",
      "type": "function"
    },
    {
      "constant": false,
      "inputs": [
        {
          "internalType": "address",
          "name": "_owners",
          "type": "address"
        }
      ],
      "name": "addUsers",
      "outputs": [],
      "payable": false,
      "stateMutability": "nonpayable",
      "type": "function"
    },
    {
      "constant": false,
      "inputs": [
        {
          "internalType": "address",
          "name": "_user",
          "type": "address"
        }
      ],
      "name": "removeUser",
      "outputs": [],
      "payable": false,
      "stateMutability": "nonpayable",
      "type": "function"
    },
    {
      "constant": true,
      "inputs": [],
      "name": "getUsers",
      "outputs": [
        {
          "internalType": "address[]",
          "name": "",
          "type": "address[]"
        }
      ],
      "payable": false,
      "stateMutability": "view",
      "type": "function"
    },
    {
      "constant": true,
      "inputs": [],
      "name": "getApprovalLimit",
      "outputs": [
        {
          "internalType": "uint256",
          "name": "",
          "type": "uint256"
        }
      ],
      "payable": false,
      "stateMutability": "view",
      "type": "function"
    },
    {
      "constant": false,
      "inputs": [],
      "name": "deposit",
      "outputs": [],
      "payable": true,
      "stateMutability": "payable",
      "type": "function"
    },
    {
      "constant": true,
      "inputs": [],
      "name": "getAccountBalance",
      "outputs": [
        {
          "internalType": "uint256",
          "name": "",
          "type": "uint256"
        }
      ],
      "payable": false,
      "stateMutability": "view",
      "type": "function"
    },
    {
      "constant": true,
      "inputs": [],
      "name": "getContractBalance",
      "outputs": [
        {
          "internalType": "uint256",
          "name": "",
          "type": "uint256"
        }
      ],
      "payable": false,
      "stateMutability": "view",
      "type": "function"
    },
    {
      "constant": true,
      "inputs": [],
      "name": "getOwner",
      "outputs": [
        {
          "internalType": "address",
          "name": "",
          "type": "address"
        }
      ],
      "payable": false,
      "stateMutability": "view",
      "type": "function"
    },
    {
      "constant": false,
      "inputs": [
        {
          "internalType": "uint256",
          "name": "_amount",
          "type": "uint256"
        },
        {
          "internalType": "address payable",
          "name": "_receiver",
          "type": "address"
        }
      ],
      "name": "createTransfer",
      "outputs": [],
      "payable": false,
      "stateMutability": "nonpayable",
      "type": "function"
    },
    {
      "constant": false,
      "inputs": [
        {
          "internalType": "uint256",
          "name": "_id",
          "type": "uint256"
        }
      ],
      "name": "approve",
      "outputs": [],
      "payable": false,
      "stateMutability": "nonpayable",
      "type": "function"
    },
    {
      "constant": false,
      "inputs": [
        {
          "internalType": "uint256",
          "name": "_id",
          "type": "uint256"
        }
      ],
      "name": "TransferFunds",
      "outputs": [
        {
          "internalType": "uint256",
          "name": "",
          "type": "uint256"
        }
      ],
      "payable": false,
      "stateMutability": "nonpayable",
      "type": "function"
    },
    {
      "constant": false,
      "inputs": [
        {
          "internalType": "uint256",
          "name": "_id",
          "type": "uint256"
        },
        {
          "internalType": "uint256",
          "name": "_amount",
          "type": "uint256"
        }
      ],
      "name": "withdraw",
      "outputs": [
        {
          "internalType": "uint256",
          "name": "",
          "type": "uint256"
        }
      ],
      "payable": false,
      "stateMutability": "nonpayable",
      "type": "function"
    },
    {
      "constant": true,
      "inputs": [
        {
          "internalType": "uint256",
          "name": "_id",
          "type": "uint256"
        }
      ],
      "name": "getApprovalState",
      "outputs": [
        {
          "internalType": "uint256",
          "name": "",
          "type": "uint256"
        }
      ],
      "payable": false,
      "stateMutability": "view",
      "type": "function"
    },
    {
      "constant": true,
      "inputs": [],
      "name": "getTransferRequests",
      "outputs": [
        {
          "components": [
            {
              "internalType": "uint256",
              "name": "amount",
              "type": "uint256"
            },
            {
              "internalType": "address payable",
              "name": "receiver",
              "type": "address"
            },
            {
              "internalType": "uint256",
              "name": "approvals",
              "type": "uint256"
            },
            {
              "internalType": "bool",
              "name": "hasBeenSent",
              "type": "bool"
            },
            {
              "internalType": "uint256",
              "name": "id",
              "type": "uint256"
            }
          ],
          "internalType": "struct MultiSigWallet.Transfer[]",
          "name": "",
          "type": "tuple[]"
        }
      ],
      "payable": false,
      "stateMutability": "view",
      "type": "function"
    }
  ],
  "bytecode": "0x608060405234801561001057600080fd5b50611a2e806100206000396000f3fe6080604052600436106100e75760003560e01c80637278a1fa1161008a578063a04ef14511610059578063a04ef145146102f5578063a4d66daf14610320578063b759f9541461034b578063d0e30db014610374576100e7565b80637278a1fa146102395780637720cdd814610264578063893d20e8146102a157806398575188146102cc576100e7565b8063441a3e70116100c6578063441a3e701461017d5780634c12fa47146101ba5780636896fabf146101e35780636f9fb98a1461020e576100e7565b8062ce8e3e146100ec57806304343722146101175780630cf6303c14610140575b600080fd5b3480156100f857600080fd5b5061010161037e565b60405161010e9190611778565b60405180910390f35b34801561012357600080fd5b5061013e60048036036101399190810190611430565b61040c565b005b34801561014c57600080fd5b5061016760048036036101629190810190611459565b61054b565b60405161017491906117fc565b60405180910390f35b34801561018957600080fd5b506101a4600480360361019f91908101906114be565b61077c565b6040516101b191906117fc565b60405180910390f35b3480156101c657600080fd5b506101e160048036036101dc9190810190611482565b6109fe565b005b3480156101ef57600080fd5b506101f8610cc0565b60405161020591906117fc565b60405180910390f35b34801561021a57600080fd5b50610223610d07565b60405161023091906117fc565b60405180910390f35b34801561024557600080fd5b5061024e610d0f565b60405161025b91906117fc565b60405180910390f35b34801561027057600080fd5b5061028b60048036036102869190810190611459565b610d19565b60405161029891906117fc565b60405180910390f35b3480156102ad57600080fd5b506102b6610d41565b6040516102c3919061175d565b60405180910390f35b3480156102d857600080fd5b506102f360048036036102ee9190810190611430565b610d49565b005b34801561030157600080fd5b5061030a610f23565b604051610317919061179a565b60405180910390f35b34801561032c57600080fd5b50610335611011565b60405161034291906117fc565b60405180910390f35b34801561035757600080fd5b50610372600480360361036d9190810190611459565b611017565b005b61037c6112a4565b005b6060600080548060200260200160405190810160405280929190818152602001828054801561040257602002820191906000526020600020905b8160009054906101000a900473ffffffffffffffffffffffffffffffffffffffff1673ffffffffffffffffffffffffffffffffffffffff16815260200190600101908083116103b8575b5050505050905090565b60008090505b6000805490508110156104d2578173ffffffffffffffffffffffffffffffffffffffff166000828154811061044357fe5b9060005260206000200160009054906101000a900473ffffffffffffffffffffffffffffffffffffffff1673ffffffffffffffffffffffffffffffffffffffff1614156104c5576040517f08c379a00000000000000000000000000000000000000000000000000000000081526004016104bc906117dc565b60405180910390fd5b8080600101915050610412565b5060008190806001815401808255809150509060018203906000526020600020016000909192909190916101000a81548173ffffffffffffffffffffffffffffffffffffffff021916908373ffffffffffffffffffffffffffffffffffffffff1602179055505060016000805490500360018190555050565b6000600160008054905011610595576040517f08c379a000000000000000000000000000000000000000000000000000000000815260040161058c906117bc565b60405180910390fd5b600154600283815481106105a557fe5b90600052602060002090600502016002015410156105c257600080fd5b600154600283815481106105d257fe5b90600052602060002090600502016002015410610735576001600283815481106105f857fe5b906000526020600020906005020160030160006101000a81548160ff0219169083151502179055506002828154811061062d57fe5b906000526020600020906005020160000154600460003373ffffffffffffffffffffffffffffffffffffffff1673ffffffffffffffffffffffffffffffffffffffff168152602001908152602001600020600082825403925050819055506002828154811061069857fe5b90600052602060002090600502016000015460046000600285815481106106bb57fe5b906000526020600020906005020160010160009054906101000a900473ffffffffffffffffffffffffffffffffffffffff1673ffffffffffffffffffffffffffffffffffffffff1673ffffffffffffffffffffffffffffffffffffffff168152602001908152602001600020600082825401925050819055505b600460003373ffffffffffffffffffffffffffffffffffffffff1673ffffffffffffffffffffffffffffffffffffffff168152602001908152602001600020549050919050565b6000806000905060008090505b600080549050811015610813573373ffffffffffffffffffffffffffffffffffffffff16600082815481106107ba57fe5b9060005260206000200160009054906101000a900473ffffffffffffffffffffffffffffffffffffffff1673ffffffffffffffffffffffffffffffffffffffff16141561080657600191505b8080600101915050610789565b50600115158115151461082557600080fd5b60016000805490501161086d576040517f08c379a0000000000000000000000000000000000000000000000000000000008152600401610864906117bc565b60405180910390fd5b6001546002858154811061087d57fe5b906000526020600020906005020160020154101561089a57600080fd5b600154600285815481106108aa57fe5b906000526020600020906005020160020154106109b5576001600285815481106108d057fe5b906000526020600020906005020160030160006101000a81548160ff0219169083151502179055506002848154811061090557fe5b906000526020600020906005020160010160009054906101000a900473ffffffffffffffffffffffffffffffffffffffff1673ffffffffffffffffffffffffffffffffffffffff166108fc849081150290604051600060405180830381858888f1935050505015801561097c573d6000803e3d6000fd5b507fd9bbf1d8bef570b7e92ef1ba025425fc15915ae01f3d3be144cdc8be05442eb5846040516109ac91906117fc565b60405180910390a15b600460003373ffffffffffffffffffffffffffffffffffffffff1673ffffffffffffffffffffffffffffffffffffffff1681526020019081526020016000205491505092915050565b600080905060008090505b600080549050811015610a93573373ffffffffffffffffffffffffffffffffffffffff1660008281548110610a3a57fe5b9060005260206000200160009054906101000a900473ffffffffffffffffffffffffffffffffffffffff1673ffffffffffffffffffffffffffffffffffffffff161415610a8657600191505b8080600101915050610a09565b506001151581151514610aa557600080fd5b600160008054905011610aed576040517f08c379a0000000000000000000000000000000000000000000000000000000008152600401610ae4906117bc565b60405180910390fd5b60008090505b600080549050811015610b7d578273ffffffffffffffffffffffffffffffffffffffff1660008281548110610b2457fe5b9060005260206000200160009054906101000a900473ffffffffffffffffffffffffffffffffffffffff1673ffffffffffffffffffffffffffffffffffffffff161415610b7057600080fd5b8080600101915050610af3565b507f099c4ec4ecfc26f7c8b27aeee5443f92120fa2c4e91ba6020369ae71a4d44278600280549050843385604051610bb8949392919061184e565b60405180910390a160026040518060a001604052808581526020018473ffffffffffffffffffffffffffffffffffffffff16815260200160008152602001600015158152602001600280549050815250908060018154018082558091505090600182039060005260206000209060050201600090919290919091506000820151816000015560208201518160010160006101000a81548173ffffffffffffffffffffffffffffffffffffffff021916908373ffffffffffffffffffffffffffffffffffffffff1602179055506040820151816002015560608201518160030160006101000a81548160ff02191690831515021790555060808201518160040155505050505050565b6000600460003373ffffffffffffffffffffffffffffffffffffffff1673ffffffffffffffffffffffffffffffffffffffff16815260200190815260200160002054905090565b600047905090565b6000600154905090565b600060028281548110610d2857fe5b9060005260206000209060050201600201549050919050565b600033905090565b600080600090505b600080549050811015610e49578273ffffffffffffffffffffffffffffffffffffffff1660008281548110610d8257fe5b9060005260206000200160009054906101000a900473ffffffffffffffffffffffffffffffffffffffff1673ffffffffffffffffffffffffffffffffffffffff161415610e3c578091508273ffffffffffffffffffffffffffffffffffffffff1660008281548110610df057fe5b9060005260206000200160009054906101000a900473ffffffffffffffffffffffffffffffffffffffff1673ffffffffffffffffffffffffffffffffffffffff1614610e3b57600080fd5b5b8080600101915050610d51565b50600060016000805490500381548110610e5f57fe5b9060005260206000200160009054906101000a900473ffffffffffffffffffffffffffffffffffffffff1660008281548110610e9757fe5b9060005260206000200160006101000a81548173ffffffffffffffffffffffffffffffffffffffff021916908373ffffffffffffffffffffffffffffffffffffffff1602179055506000805480610eea57fe5b6001900381819060005260206000200160006101000a81549073ffffffffffffffffffffffffffffffffffffffff021916905590555050565b60606002805480602002602001604051908101604052809291908181526020016000905b8282101561100857838290600052602060002090600502016040518060a0016040529081600082015481526020016001820160009054906101000a900473ffffffffffffffffffffffffffffffffffffffff1673ffffffffffffffffffffffffffffffffffffffff1673ffffffffffffffffffffffffffffffffffffffff168152602001600282015481526020016003820160009054906101000a900460ff1615151515815260200160048201548152505081526020019060010190610f47565b50505050905090565b60015481565b600080905060008090505b6000805490508110156110ac573373ffffffffffffffffffffffffffffffffffffffff166000828154811061105357fe5b9060005260206000200160009054906101000a900473ffffffffffffffffffffffffffffffffffffffff1673ffffffffffffffffffffffffffffffffffffffff16141561109f57600191505b8080600101915050611022565b5060011515811515146110be57600080fd5b600160008054905011611106576040517f08c379a00000000000000000000000000000000000000000000000000000000081526004016110fd906117bc565b60405180910390fd5b60001515600360003373ffffffffffffffffffffffffffffffffffffffff1673ffffffffffffffffffffffffffffffffffffffff168152602001908152602001600020600084815260200190815260200160002060009054906101000a900460ff1615151461117457600080fd5b600015156002838154811061118557fe5b906000526020600020906005020160030160009054906101000a900460ff161515146111b057600080fd5b6001600360003373ffffffffffffffffffffffffffffffffffffffff1673ffffffffffffffffffffffffffffffffffffffff168152602001908152602001600020600084815260200190815260200160002060006101000a81548160ff0219169083151502179055506002828154811061122657fe5b9060005260206000209060050201600201600081548092919060010191905055507ffec9d12d15ee8c8b836a58347cb0d4980db38411bcd0b83662cee48fb20b6dee826002848154811061127657fe5b9060005260206000209060050201600201543360405161129893929190611817565b60405180910390a15050565b600080905060008090505b600080549050811015611339573373ffffffffffffffffffffffffffffffffffffffff16600082815481106112e057fe5b9060005260206000200160009054906101000a900473ffffffffffffffffffffffffffffffffffffffff1673ffffffffffffffffffffffffffffffffffffffff16141561132c57600191505b80806001019150506112af565b50600115158115151461134b57600080fd5b600034101561135957600080fd5b6001600080549050116113a1576040517f08c379a0000000000000000000000000000000000000000000000000000000008152600401611398906117bc565b60405180910390fd5b34600460003373ffffffffffffffffffffffffffffffffffffffff1673ffffffffffffffffffffffffffffffffffffffff1681526020019081526020016000206000828254019250508190555050565b600081359050611400816119a6565b92915050565b600081359050611415816119bd565b92915050565b60008135905061142a816119d4565b92915050565b60006020828403121561144257600080fd5b6000611450848285016113f1565b91505092915050565b60006020828403121561146b57600080fd5b60006114798482850161141b565b91505092915050565b6000806040838503121561149557600080fd5b60006114a38582860161141b565b92505060206114b485828601611406565b9150509250929050565b600080604083850312156114d157600080fd5b60006114df8582860161141b565b92505060206114f08582860161141b565b9150509250929050565b60006115068383611548565b60208301905092915050565b600061151e83836116d7565b60a08301905092915050565b61153381611970565b82525050565b61154281611928565b82525050565b61155181611916565b82525050565b61156081611916565b82525050565b6000611571826118b3565b61157b81856118e3565b935061158683611893565b8060005b838110156115b757815161159e88826114fa565b97506115a9836118c9565b92505060018101905061158a565b5085935050505092915050565b60006115cf826118be565b6115d981856118f4565b93506115e4836118a3565b8060005b838110156116155781516115fc8882611512565b9750611607836118d6565b9250506001810190506115e8565b5085935050505092915050565b61162b8161193a565b82525050565b600061163e602183611905565b91507f6e65656420746f2068617665206d6f7265207468616e206f6e65207369676e6560008301527f72000000000000000000000000000000000000000000000000000000000000006020830152604082019050919050565b60006116a4601283611905565b91507f416c7265616479207265676973746572656400000000000000000000000000006000830152602082019050919050565b60a0820160008201516116ed600085018261173f565b5060208201516117006020850182611539565b506040820151611713604085018261173f565b5060608201516117266060850182611622565b506080820151611739608085018261173f565b50505050565b61174881611966565b82525050565b61175781611966565b82525050565b60006020820190506117726000830184611557565b92915050565b600060208201905081810360008301526117928184611566565b905092915050565b600060208201905081810360008301526117b481846115c4565b905092915050565b600060208201905081810360008301526117d581611631565b9050919050565b600060208201905081810360008301526117f581611697565b9050919050565b6000602082019050611811600083018461174e565b92915050565b600060608201905061182c600083018661174e565b611839602083018561174e565b611846604083018461152a565b949350505050565b6000608082019050611863600083018761174e565b611870602083018661174e565b61187d604083018561152a565b61188a606083018461152a565b95945050505050565b6000819050602082019050919050565b6000819050602082019050919050565b600081519050919050565b600081519050919050565b6000602082019050919050565b6000602082019050919050565b600082825260208201905092915050565b600082825260208201905092915050565b600082825260208201905092915050565b600061192182611946565b9050919050565b600061193382611946565b9050919050565b60008115159050919050565b600073ffffffffffffffffffffffffffffffffffffffff82169050919050565b6000819050919050565b600061197b82611982565b9050919050565b600061198d82611994565b9050919050565b600061199f82611946565b9050919050565b6119af81611916565b81146119ba57600080fd5b50565b6119c681611928565b81146119d157600080fd5b50565b6119dd81611966565b81146119e857600080fd5b5056fea365627a7a72315820ea5074cd1194e11420275cfbc45ffb464803179666fbdf344fbead16420a202e6c6578706572696d656e74616cf564736f6c63430005100040",
  "source": "//SPDX-License-Identifier: MIT\r\npragma solidity >=0.4.22 <0.9.0;\r\npragma experimental ABIEncoderV2;\r\n\r\n\r\n//TO DO -- make withdrawal struct\r\n\r\ncontract MultiSigWallet {\r\n\r\n    address[] owners;\r\n    uint public limit;\r\n    \r\n    struct Transfer{\r\n        uint amount;\r\n        address payable receiver;\r\n        uint approvals;\r\n        bool hasBeenSent;\r\n        uint id;\r\n    }\r\n    \r\n    \r\n    Transfer[] transferRequests;\r\n    \r\n    mapping(address => mapping(uint => bool)) approvals;\r\n    mapping(address => uint)balance;\r\n    \r\n    \r\n    modifier onlyOwners(){\r\n        bool owner = false;\r\n        for(uint i=0; i<owners.length;i++){\r\n            if(owners[i] == msg.sender){\r\n                owner = true;\r\n            }\r\n        }\r\n        require(owner == true);\r\n        _;\r\n    }\r\n    \r\n    event TransferRequestCreated(uint _id, uint _amount, address _initiator, address _receiver);\r\n    event ApprovalReceived(uint _id, uint _approvals, address _approver);\r\n    event TransferApproved(uint _id);\r\n    \r\n    function addUsers(address _owners) public\r\n    {\r\n        for (uint user = 0; user < owners.length; user++)\r\n        {\r\n            require(owners[user] != _owners, \"Already registered\");\r\n        }\r\n        owners.push(_owners);\r\n        \r\n        //from the current array calculate the value of minimum consensus\r\n        limit = owners.length - 1;\r\n    }\r\n    \r\n    function removeUser(address _user) public\r\n    {\r\n        uint user_index;\r\n        for(uint user = 0; user < owners.length; user++)\r\n        {\r\n            if (owners[user] == _user)\r\n            {   \r\n                user_index = user;\r\n                require(owners[user] == _user);\r\n            }\r\n        }\r\n        \r\n        owners[user_index] = owners[owners.length - 1];\r\n        owners.pop();\r\n        //owners;\r\n    }\r\n    \r\n    \r\n    function getUsers() public view returns(address[] memory)\r\n    {\r\n        return owners;\r\n    }\r\n    \r\n    function getApprovalLimit() public view returns (uint)\r\n    {\r\n        return (limit);\r\n    }\r\n    \r\n    \r\n    //Empty function\r\n    function deposit() public payable onlyOwners\r\n    {\r\n        require(msg.value >= 0);\r\n        require(owners.length > 1, \"need to have more than one signer\");\r\n    \r\n        balance[msg.sender] += msg.value;\r\n    }\r\n    \r\n    \r\n    //next we want to make a get balance function\r\n    function getAccountBalance() public view returns(uint)\r\n    {\r\n        return balance[msg.sender];\r\n    }\r\n    \r\n    \r\n    function getContractBalance() public view returns(uint)\r\n    {\r\n        return address(this).balance;\r\n    }\r\n    \r\n    \r\n    //next we want to make q function to return the address of the wallet owner\r\n    function getOwner() public view returns(address)\r\n    {\r\n        return msg.sender;\r\n    }\r\n    \r\n    \r\n    //Create an instance of the Transfer struct and add it to the transferRequests array\r\n    function createTransfer(uint _amount, address payable _receiver) public onlyOwners {\r\n        require(owners.length > 1, \"need to have more than one signer\");\r\n        //require(msg.sender != _receiver);\r\n        for (uint i = 0; i < owners.length; i++)\r\n        {\r\n            require(owners[i] != _receiver);\r\n        //   if  (owners[i] == _receiver)\r\n        //   {\r\n        //       revert();\r\n        //   }\r\n        }\r\n        emit TransferRequestCreated(transferRequests.length, _amount, msg.sender, _receiver);\r\n        transferRequests.push(\r\n            Transfer(_amount, _receiver, 0, false, transferRequests.length)\r\n        );\r\n        \r\n    }\r\n    \r\n    \r\n    \r\n    function approve(uint _id) public onlyOwners {\r\n        require(owners.length > 1, \"need to have more than one signer\");\r\n        require(approvals[msg.sender][_id] == false);\r\n        require(transferRequests[_id].hasBeenSent == false);\r\n        \r\n        approvals[msg.sender][_id] = true;\r\n        transferRequests[_id].approvals++;\r\n        \r\n        emit ApprovalReceived(_id, transferRequests[_id].approvals, msg.sender);\r\n    \r\n        \r\n    }\r\n    \r\n    \r\n     //now we need to create a function to actually transfer the funds after the\r\n    //transfer has been recieved\r\n    function TransferFunds(uint _id) public returns(uint)\r\n    {\r\n        require(owners.length > 1, \"need to have more than one signer\");\r\n        require(transferRequests[_id].approvals >= limit);\r\n        \r\n        if(transferRequests[_id].approvals >= limit)\r\n        {\r\n            transferRequests[_id].hasBeenSent = true;\r\n            balance[msg.sender] -= transferRequests[_id].amount;\r\n            balance[transferRequests[_id].receiver] += transferRequests[_id].amount;\r\n            \r\n        }\r\n        return balance[msg.sender];\r\n    }\r\n    \r\n    //after transfer is called our balance i < transaction amount thus we cannot withfraw\r\n    //update amount after transfer function.\r\n    function withdraw(uint _id, uint _amount) public onlyOwners returns (uint)\r\n    {\r\n        //take in amount and update struct \r\n        require(owners.length > 1, \"need to have more than one signer\");\r\n        require(transferRequests[_id].approvals >= limit);\r\n        \r\n        if(transferRequests[_id].approvals >= limit)\r\n        {\r\n            transferRequests[_id].hasBeenSent = true;\r\n            transferRequests[_id].receiver.transfer(_amount);\r\n            emit TransferApproved(_id);\r\n        }\r\n        \r\n        return balance[msg.sender];\r\n        \r\n    }\r\n    \r\n    \r\n    function getApprovalState(uint _id) public view returns(uint)\r\n    {\r\n        return transferRequests[_id].approvals;\r\n    }\r\n    \r\n    \r\n    //Should return all transfer requests\r\n    function getTransferRequests() public view returns (Transfer[] memory){\r\n       \r\n        return transferRequests;\r\n    }\r\n}",
  "sourcePath": "C:/Users/evanm/OneDrive/Documents/EthereumProgramming/Solidity-201/Truffle/HelloWorld/contracts/MultiStigWallet.sol",
  "compiler": {
    "name": "solc",
    "version": "0.5.16+commit.9c3226ce.Emscripten.clang"
  },
  "schemaVersion": "3.3.4",
  "updatedAt": "2021-05-03T10:32:20.166Z",
  "networkType": "ethereum",
  "devdoc": {
    "methods": {}
  },
  "userdoc": {
    "methods": {}
  }
}